:030020004F4B0043
:0404E60041002000B1
:10038300758181E4F593F594F591F592F595F596DC
:10039300F5B1F5B2F5B3F5B4F5C9F5CA12051812FE
:1003A30004FFD2AF1200267F057E001204CC7BFF30
:1003B3007A00792012006820B21F7F647E00120445
:1003C300CC20B21590001C7407F0E4A3F0A3F0A3B3
:1003D300F07B01FD7F0212018A20B30F7F647E0050
:1003E3001204CC20B3057F7712052820B7C9120267
:1003F3005B900020EFF01205287F881205287F20EC
:070403007E031204CC80B05F
:0404EA0041002100AC
:1005180053D1DF75D33875D25043AF4043D18022D1
:0300A30002044B09
:10044B00C0E0C083C08263A201C083C082C0D090D1
:10045B000021E004F0E0D394054006E4F0B2C7B20B
:10046B00C6D0D0D082D08363A201D082D083D0E01B
:01047B00324E
:0204EE00C1004B
:03002300020003D5
:10000300C0E0C0D030980AC298E599B4FA0375C726
:0D00130060309904C299C200D0D0D0E03214
:1004FF00759850438E40538EFE53890F758B4175FF
:09050F008DFDC2ABD28ED2AC22EC
:0A052800D2008F992000FDD20022BE
:10006800900019EBF0A3EAF0A3E9F0900019E0FB87
:10007800A3E475F001120495A9F0FA12047CFF12AA
:100088000528900019E0FBA3E0FAA3E0F912047C2C
:0300980070D922FA
:1004CC00E4FDFCC3ED9FEC9E500F791B7B40DBFEE3
:0904DC00D9FC0DBD00010C80EA01
:0104E50022F4
:0E04F0004B000E3F065B4F666D7D077F6F0071
:1000260053C9C753CAC743CA189000007401F0A346
:100036007440F0A374C0F090000D7489F09000181D
:10004600E0FF900003F0E4A3F0A3EFF0E4A3F0A335
:10005600EFF0E4A3F0A3EFF0E4A3F0A3EFF0E4A342
:02006600F02286
:10040A00A3E0FF120425A3E0FF120425A3E0FF12D4
:0B041A000425A3E0FF120425A3E0FF6F
:10042500E4FEAD07C2CC0000000000ED30E004D2D0
:10043500CD8002C2CDEDC313FDD2CC00000000007B
:050445000EEEB408DF1B
:01044A00228F
:1004AB00E4FFFEEE25E0FEC2CC0000000000D2CC43
:1004BB00000000000030CD010E0FEFB408E5AF06D1
:0104CB00220E
:1000A6009000007401F0A37440F0A374C0F09000B7
:1000B6000D7489F0C2CB900000E0FF120425D2CB6C
:1000C600000000000000000000000000000000002A
:1000D600000000000000000000000000000000001A
:1000E6000000000000000000C2CBA3E0FF120425C0
:1000F600D2CB00000000000000000000000000005D
:1001060000000000000000000000000000000000E9
:1001160000000000000000000000C2CB12040AA389
:10012600E0FF12042512040AD2CB000000000000F2
:1001360000000000000000000000000000000000B9
:1001460000000000000000000000000000000000A9
:100156000000C2CB7F89120425D2CB00000000002C
:100166000000000000000000000000000000000089
:100176000000000000000000000000000000000079
:040186000000002253
:10018A0090001DE0FEB4010F740E2FF582E43400D6
:10019A00F583E04480800B740E2FF582E43400F579
:1001AA0083E0900003F0E4900004F0EEB4020F74D0
:1001BA000E2DF582E43400F583E04480800B740E42
:1001CA002DF582E43400F583E0900005F090001EDE
:1001DA00E0FCB401089000067401F08005E4900088
:1001EA0006F090001DE0FEB4030F740E2BF582E4B6
:1001FA003400F583E04480800B740E2BF582E434DE
:10020A0000F583E0900007F0ECB401089000087450
:10021A0001F08005E4900008F0EE90001CB4040F91
:10022A00E0240EF582E43400F583E04480800BE09C
:10023A00240EF582E43400F583E0900009F0E4909E
:10024A00000AF090001FE090000BF0E4A3F0020017
:01025A00A6FD
:10025B00E4FDC2CB7F421204250000000000000029
:10026B000000000000000000000000000000000083
:10027B000000000000000000000000000000000073
:10028B0000D2CDE4FD1204AB74192DF582E43400D9
:10029B00F583EFF0D2CD000000000000000000005D
:1002AB000000000000000000000000000000000043
:1002BB0000000000000000000000000000000DED39
:1002CB00B405C2D2CBE4FF90001AE0C4540FF02F58
:1002DB0025E0FF90001CE0C413135403F0E0FEC3B1
:0B02EB00132F25E0FFEE5401F02FFF61
:0102F60022E5
:030000000202F702
:0C02F700787FE4F6D8FD75812002033EFC
:10047C00BB010689828A83E0225002E722BBFE027E
:09048C00E32289828A83E49322B1
:10049500A3F8E0C5F025F0F0E5821582700215831A
:0604A500E0C838F0E82277
:10030300020383E493A3F8E493A34003F68001F28A
:1003130008DFF48029E493A3F85407240CC8C333FB
:10032300C4540F4420C8834004F456800146F6DFCA
:10033300E4800B01020408102040809004E6E47E70
:10034300019360BCA3FF543F30E509541FFEE493BF
:10035300A360010ECF54C025E060A840B8E493A386
:10036300FAE493A3F8E493A3C8C582C8CAC583CAB1
:10037300F0A3C8C582C8CAC583CADFE9DEE780BE69
:0104FE0000FD
:00000001FF
